:020000040800F2
:1000000018090020A5010008253200081D3200084B
:1000100021320008250F00082938000800000000E0
:10002000000000000000000000000000093400088B
:10003000350F000800000000053400080D340008EA
:10004000BF010008BF010008BF010008BF01000890
:10005000BF010008BF010008390F0008410F000868
:10006000BF010008490F0008BF010008BF010008D8
:10007000BF010008290F0008BF010008BF010008E8
:10008000BF010008BF010008BF010008BF01000850
:10009000BF010008BF010008BF010008BF01000840
:1000A000BF010008BF010008BF010008BF01000830
:1000B00015340008BF010008BF010008BF01000897
:1000C000BF010008BF010008BF010008BF01000810
:1000D000BF010008BF010008BF0100081D3800086B
:1000E000BF010008BF010008BF01000800F002F8CE
:1000F00000F048F80AA090E8000C82448344AAF17A
:100100000107DA4501D100F03DF8AFF2090EBAE877
:100110000F0013F0010F18BFFB1A43F0010318473B
:100120000459000024590000103A24BF78C878C14F
:10013000FAD8520724BF30C830C144BF04680C60ED
:10014000704700000023002400250026103A28BF35
:1001500078C1FBD8520728BF30C148BF0B60704739
:100160001FB500F005FC04000020002104F07AFC1B
:10017000401C60600020002104F05EFCE0601FBDB8
:1001800010B510BD00F0D4F81146FFF7E9FF03F0F9
:100190004DFB00F01BF903B4FFF7F2FF03BC00F0C6
:1001A00075FC00000948804709480047FEE7FEE764
:1001B000FEE7FEE7FEE7FEE7FEE7FEE7FEE7FEE717
:1001C00004480549054A064B7047000011340008F1
:1001D000ED00000818030020180900201805002071
:1001E00018050020014A00F00BB8000000000020B4
:1001F0007047704770470023036000F045B8000067
:100200002DE9F04115460E46040002D12C6804B9D0
:100210000BA4204600F07EF80444207870B12746F5
:100220003146384600F066F80444207810B10020CA
:1002300004F8010B38462C60BDE8F0810027F9E78F
:10024000000000000FB40B0010B54FF000048AB09E
:100250000FA900910E99CC60234C7C44234A7A4428
:10026000CDE9064200D004236FF00042CDE901320F
:100270001F4A7A446B4608920246002005F054FB60
:100280000AB010BC5DF814FBF0B507464FF0FF3024
:100290001E4615460C463B4685B06A460091CDE9A0
:1002A000010131460020049004A8FFF7CBFF049918
:1002B0000346601825B109B1024600E022462A60D3
:1002C00000290ED0002B02DD0099814209D03B4667
:1002D0006A463146001B0094CDE9010404A8FFF7EB
:1002E000B1FF05B0F0BD00002F0100004901000082
:1002F0000501000030B503461D781DB10A4603E034
:10030000AC4201D1181A30BD12F8014B002CF7D1C4
:100310005B1CF1E730B503461D783DB10A4612F883
:10032000014B1CB1AC42FAD15B1CF5E7181A30BD89
:10033000754600F055F8AE4605006946534620F074
:100340000700854618B020B5FFF73AFFBDE820400A
:100350004FF000064FF000074FF000084FF0000B81
:10036000AC46ACE8C009ACE8C009ACE8C009ACE8F0
:10037000C00921F007018D46704710B5044600F012
:1003800033F80068005D00F0010010BD426842B122
:10039000016811F8013B23B1521EC0E90012184652
:1003A00070470121C160881E704742685AB1C36816
:1003B000016843B983688B4205D0491E521CC0E9CD
:1003C0000012002070474FF0FF30704710B5044610
:1003D000AFF300802046BDE81040FFF7DCBE000010
:1003E000004870471000002010B500F0C1FA001D51
:1003F00010BD00BF714600002DE9FF4F06468BB0CF
:100400000878FF2806D0491C2D2805D000244FF07D
:10041000000908E000200CE00124F8E709EB89035B
:10042000491C00EB43090878FF28F7D114B1C9F142
:1004300000008146107800252C46AA4629462D2822
:1004400001D02B2804D1521C2D2813D00020824625
:100450008B461078FF280FD04FF0000C0A21521C59
:10046000A5FB017804FB018105FB0C11C5194BEBC1
:100470000104EEE70120EAE7002108464FF0000002
:10048000BAF1000F02D000EB80004008C0F38157A2
:10049000012F01DD4FF0FF370E9955EA040009EBFB
:1004A00001080BD04FF0020918F5FA7F16DA4FEA6F
:1004B000CA70002F706008DD012007E04FEACA70A3
:1004C000C6E900B00FB0BDE8F08F0020306000F04A
:1004D00053FAC0F800901821084616E0B8F5FA7FE4
:1004E00018DD002F02DAF748784401E0F648784436
:1004F000D0E90010C6E9001040EACA70706000F050
:100500003BFAC0F80090142108460FB0BDE8F04F48
:1005100005F0A7B9002108464FF00000B8F100012E
:10052000099002DAC7F1000200E03A4601DAC8F1A8
:10053000000106A800F038FA06AB93E8070003AB09
:1005400083E8070044F23E005BEA0401009058464D
:1005500004D144F21E012C465D460091210C090491
:10056000014306D10099240444EA15442D041039AE
:10057000009104F07F41014306D10099240244EA2E
:1005800015642D020839009104F07041014306D131
:100590000099240144EA15742D01091F009104F00B
:1005A0004041014306D10099A40044EA9574AD008E
:1005B000891E009104F00041084304D100986D1990
:1005C0006441401E00904FF001033A466846B8F17E
:1005D000000FCDE9014503A902DD03F0FEFF01E0B4
:1005E00003F0D1FFBAF1000F04460D4601D084F0AC
:1005F0000044002108464FF00000099940F2FF77BF
:10060000484010F00C0F07D124F00040284303D0DD
:10061000C4F30A50B84212D100F0AEF9C0F800900D
:10062000C4F30A50B8420AD1A8487844D0E900106F
:10063000C6E9001004F000410843706042E7C6E9D3
:1006400000543FE72DE9FF4F1F464FF0000A4FF0DF
:10065000FF38454691B0D7E90146CDF83CA000F0FF
:1006600087F9C0680168405C1090B96912986D1CE8
:100670008847396A814688470028F6D1B9F1FF3F9B
:100680000AD0002E24F4D06411DDB9F12B0F08D06C
:10069000B9F12D0F0BD102E0404615B013E744F439
:1006A0008064B96912986D1C8847761E8146600582
:1006B00004A901D52D2000E02B20002E01F1010B13
:1006C0000DF130088DF810003FDDB9F1690F08D049
:1006D000B9F1490F05D0B9F16E0F02D0B9F14E0F43
:1006E0001CD13B4601A8009580E85002DDE91212BA
:1006F0006FF0020005F01CF9C11CCED10EE0B96903
:1007000012986D1C884781461398761E44F4007435
:1007100005600F98401C002E0F9016DDB9F1300FC8
:10072000EDD0B9F1780F02D0B9F1580F0DD10F9873
:1007300001280AD13B46CDE90054DDE91212001F21
:10074000029605F0F3F8C11CA7D1109989453ED156
:1007500044F0800406E01399681CAAF1010A44F4ED
:1007600000740860B9696D1C1298761E884730289D
:100770008146F0D02BE01099894505D1200603D49D
:10078000761E44F0800418E0484604F0DEF808B312
:10079000761E0DF123029345A9F1300044F4007454
:1007A00006D20BF8010B200607D5AAF1010003E0E1
:1007B000200602D40AF101008246A00502D5139951
:1007C000681C0860B96912986D1C88478146002E24
:1007D000D1DC53E0002E51DDB9F1650F02D0B9F143
:1007E000450F4BD1A00549D5B9696D1C1298761EED
:1007F00024F440748847002E81460CDD2B2804D059
:10080000B9F12D0F07D144F48074B96912986D1CA9
:100810008847761E8146E00501D52D2100E02B2179
:1008200008F8011BCDF8008021E0761E0DF139019A
:10083000884544F400740CD2A9F1300010F0FF0098
:1008400088F8000002D10099884509D908F101080B
:1008500006E0E00501D51E4801E042F20F70824635
:10086000B96912986D1C8847814613980560002E5F
:1008700004DD484604F069F80028D6D1F9691298D9
:100880008847FF2053468BF8000088F800000020BE
:100890000A900B9004AA0CA90AA8FFF7ADFDA005C9
:1008A00002D46FF00100F8E614F0240F12D0E00734
:1008B0001CD13868DDE90A12031D3B600068C0E9FD
:1008C000001213E06055000052550000165400005D
:1008D000F1D8FFFF0AA9684603F0C6FFE00705D17B
:1008E0003868009A011D3960006802602846D4E625
:1008F0004FF0013C50F8042B51F8043B9A4221D1AF
:10090000A2EB0C03934313EACC1317D150F8042B3A
:1009100051F8043B9A4215D1A2EB0C03934313EA1E
:10092000CC130BD150F8042B51F8043B9A4209D157
:10093000A2EB0C03934313EACC13DBD04FF000007F
:10094000704700BFD01A01BAB1FA81F101F0180165
:1009500022FA01F0CB40DBB2C0B2C01AC1F12001D3
:100960002CFA01F3D11A914311EAC311E6D1704771
:1009700000487047300000200048704710000020F9
:10098000B2F120030AD5C2F1200301FA02F120FAE4
:1009900003F341EA030100FA02F0704700FA03F1A1
:1009A0004FF00000704700002DE9F04781461646E1
:1009B0008AB0354878440DC88DE80D003248784437
:1009C000801C03AC0DC884E80D0041F69B30084440
:1009D000372190FBF1F290FBF1F5A5F1800501FBC9
:1009E00012041B3C02D56442012000E00020DFF825
:1009F00098A080460027FA44AAF1BE0A0EE0E0075C
:100A00000AD03246684607EB470101230AEB810111
:100A100003F0CEFD8DE8070064107F1C002CEED1A2
:100A2000194F7F44AE3F19E0E80715D007EB0410DB
:100A30000DF1180A90E80E008AE80E00C068F04236
:100A400001D1981908903246012306A903A803F0A2
:100A5000AFFD03AB83E807006D10641C002DE3D1EC
:100A60004FF0010332466946B8F1000F03A802D0E7
:100A700003F074FD01E003F09BFDC9E90001C9F832
:100A800008200AB0BDE8F08728500000014918206E
:100A9000ABBEFEE72600020010B5FFF76DFF006851
:100AA00010BD10B50446FFF767FF046010BD0000DD
:100AB0002DE9FF4F1F464FF03C0987B04FF0004231
:100AC000DDE9141001F10108DDF858A002EA4050F8
:100AD0000390002005908346054604460490B969BA
:100AE000461E08988847AAF1010A0290BAF1000F41
:100AF0003BDD02982E2815D0102100F004FA0028C2
:100B00002EDB4FF0010B0599014317D0B9F1000F0F
:100B10000BDB4A46C117FFF733FF05430C43A9F12E
:100B2000040905E0012004900BE008B145F001053F
:100B300001200590049820B9361D02E0049800B108
:100B4000361FB969089808F101088847BBF1000F02
:100B5000AAF1010A0290C9D00999C1F80080C5E73D
:100B60000298702808D0502806D0F969089888475C
:100B7000BBF1000F14D04FE0002002900120BBF128
:100B8000000F049009D0B969089808F10108884756
:100B9000AAF10109B9F1000F07DCF9690898884743
:100BA0006FF001000BB0BDE8F08F2B2804D02D288A
:100BB0000CD14FF0FF300490B969089808F1010892
:100BC0008847A9F10109B9F1000FE6DD411CE4D025
:100BD0000A2100F098F90028DFDB029908F10108EA
:100BE00001EB810100EB41000290B9690898884748
:100BF0000A2100F088F9099AA9F10109B9F1000F59
:100C0000C2F8008001DD0028E7DAF9690898884712
:100C10000499029800FB016655EA040004D004F030
:100C20004041090002D006E0039898E0A40044EA9D
:100C30009574AD00B61E04F00041080002D16D1994
:100C40006441761E159810F0240F03D04FF00B0965
:100C50005C4803E04FF028096FF07D00824656455E
:100C600007DAAAEB06018944B9F1410F01DD4FF023
:100C7000410901200021A9F10102FFF781FE02468E
:100C800028400B462140084301D0012100E000210B
:100C9000501E029143F1FF3128402140084301D00A
:100CA000012000E000200299834651EA0B014FD059
:100CB000002108464FF00000039900F4400039B1CC
:100CC00000EB80004FF4400100EBD07001EA6000BF
:100CD0008015012802DD4FF0FF3000E013D0401CEA
:100CE00036D0029860B3BBF1000F0CD14A46012008
:100CF0000021FFF745FE28402140084301D0012094
:100D000000E00020E0B101204A460021FFF738FE54
:100D1000034640190A4661412D1A8C4111D3B9F19D
:100D2000400F09DD159810F0240F02D0AAF1340607
:100D300003E0AAF1170600E0761C00254FF00044FE
:100D400006E05B1E42F1FF3220EA030521EA0204BD
:100D5000CAF10100B04206DA1B490398084301902A
:100D6000002000900EE0039AC4F3D321E80A0A435E
:100D7000164940EA44500A433146CDE9000268462C
:100D800003F0D8FD159810F0240F0BD01598C0076C
:100D900015D13868DDE90012031D3B600068C0E929
:100DA00000120CE002A8694603F05EFD1598C0072A
:100DB00005D13868029A011D39600068026040461A
:100DC000F0E6000002FCFFFF0000F07F0000F03FB3
:100DD0002DE9FF4F92461D4685B04FF00041DDE9F9
:100DE000124BDDE914727F1E01EA4B50414940F07D
:100DF000FF4940EA0108002122F02000492804911F
:100E000002D04E2828D04CE03BA0012607C88DE830
:100E10000700A9690698641C88477F1E014606D40E
:100E20001DF8060018B121F0200181420BD0E969BC
:100E300006988847032E34D0082E32D06FF0010078
:100E400009B0BDE8F08F761C032E01D0082EE0D14A
:100E5000601CCAF80000DCE7A9690698641C884792
:100E60007F1E2AD420F02000412826D1A9690698A7
:100E7000641C88477F1E20D420F020004E281CD1FF
:100E8000A9690698641C88477F1E48F4002849F425
:100E90008009CAF8004001D4282806D0E9690698DC
:100EA00088475FEACB7012D022E0A9690698641CDB
:100EB00088477F1E01D4002803DAE969069888472D
:100EC000BCE72928F1D1641CCAF80040E9E71BF00F
:100ED000240F07D028680499031D2B600068C0E91F
:100EE000001805E02868021D2A600068C0F800901C
:100EF0002046A5E70000F07F494E46494E49545927
:100F00000000000070473A2800D2303820F020025C
:100F1000412A01D3A2F13700884201D34FF0FF30BC
:100F200070470000FEE7000040F26810C2F20000C7
:100F300000F090B870470000012000F063BA000094
:100F4000022000F05FBA0000082000F05BBA000049
:100F5000EFF3108072B600BFFEE70000014690F884
:100F60002100022816D10868D1E90FC3026822F0D7
:100F70000E020260026822F001020260012000FA03
:100F800003F2CCF8042081F821000020002281F82F
:100F900020207047042088630120002281F820204F
:100FA0007047000080B590F82110022923D1026813
:100FB000116821F00E0111602F211368C4F20201A3
:100FC0008A4240F20401C4F2020123F001031360DB
:100FD00016DD3023C4F202039A421DD04423C4F22A
:100FE00002039A421BD05823C4F202039A421BD137
:100FF0004FF4803320E0042181630121084680BD45
:101000000823C4F202039A420CD01C23C4F2020348
:101010009A4209D110230FE04FF480730CE04FF493
:10102000805309E0012307E001F1680C4FF0807361
:10103000624508BF4FF480130B60012180F8211036
:10104000426B002180F820100AB190470021084629
:1010500080BD000010B50168D0E90FCEDCF800209B
:101060000B685C072BD5042404FA0EF4144026D038
:101070000A68920603D40A6822F004020A602F224A
:10108000C4F20202914240F20402C4F202025FDDA5
:101090003023C4F20203994275D04423C4F2020300
:1010A000994276D05823C4F2020399427CD14FF47E
:1010B00080231360C16A002940F081809BE09C0777
:1010C00029D5022404FA0EF4144024D00A689206AA
:1010D00006D40A6822F00A020A60012280F8212060
:1010E0002F22C4F20202914240F20402C4F2020230
:1010F0003DDD3023C4F20203994263D04423C4F29D
:101100000203994261D05823C4F20203994261D18B
:101110004FF4003366E01B076DD5082303FA0EF386
:101120001A4008BF10BD0A6822F00E020A600121B1
:1011300001FA0EF2CCF80420816380F82110016BD3
:101140000022002980F8202055D0BDE81040084733
:101150000823C4F20203994221D01C23C4F20203E3
:10116000994221D140231360C16A41BB43E0082367
:10117000C4F2020399422BD01C23C4F20203994209
:1011800028D120232EE04FF480631360C16AB1B9E7
:1011900031E04FF480431360C16A81B92BE004232E
:1011A0001360C16A59B926E002F168044FF0806308
:1011B000A14208BF4FF480031360C16AD9B1BDE8F2
:1011C000104008474FF400730CE04FF4005309E05F
:1011D000022307E002F168044FF00073A14208BF48
:1011E0004FF400131360816A002280F8202011B1AF
:1011F000BDE81040084710BD014600284FF001002F
:1012000008BF70472DE9F043D1F800C04FF6F873DE
:10121000CBF6FD734CF6CD426344CCF6CC42A3FB37
:1012200002236FF0030707EA9303002701F10C097B
:10123000C4F20207D1E9012E99E87002D1F81C80AE
:10124000C1E90F73022381F82130DCF8003043F646
:10125000F077BB431A4342EA0E0222432A43324349
:1012600042EA090242EA0802CCF8002000228A631E
:1012700081F8210081F820200020BDE8F04370476C
:10128000F0B590F820C0BCF1010F32D04FF0010E44
:1012900080F820E090F821C0BCF1010F26D14FF07A
:1012A000020C80F821C04FF0000CC0F838C0D0E923
:1012B00000C4C56AC66BDCF80070102C27F001076B
:1012C000CCF80070006C0EFA00F070600846CCF8A4
:1012D000043004BF10460A46CCF80800CCF80C20B5
:1012E000DCF800003DB140F00E000CE0002180F879
:1012F00020100220F0BD20F00400CCF80000DCF843
:10130000000040F00A00CCF80000DCF8000040F0DB
:101310000100CCF800000020F0BD0000B0B504468C
:1013200000F090F9054640F20400C2F20000007897
:10133000611C18BF044400BF00F084F9401BA042A8
:10134000FAD3B0BD10B5082838D002281BD0012828
:1013500018BF10BD40F60000C4F20100022100F0E9
:1013600065F940F27004C2F200040146E068012908
:1013700012BF4FF07E510021CBF6807103F0FEFECC
:101380000C34206010BD40F60000C4F2010000F5EE
:101390008060042100F04AF940F27004C2F20004B7
:1013A0000146206901290EBF4FF07E510021CBF686
:1013B000807103F0E3FE1034206010BD40F60000A1
:1013C000C4F201004FF4004100F030F940F2700423
:1013D000C2F20004616C01280AD154F8140F0131E3
:1013E00021630021CBF6807103F0C8FE206010BDA0
:1013F00054F8140F013921634FF07E5103F0BEFE03
:10140000206010BD40F21441C4F201010A6802429A
:1014100014BF08607047FFF795BF00002DE9F04F3B
:1014200082B00E68002E00F0FD8040F20C4C41F2BC
:1014300000424FF6FF7BC4F2010CC4F20102042308
:1014400000240127C1F2100B4FF0000A4FF00009F1
:101450004FF00F0E904208BF032300933EE001239C
:10146000BB402B4342F82B30D1F804B040F2004788
:10147000C4F201075FEACB22BA6854BF22EA08022D
:1014800042EA0802BA60DCF800205FEA8B2354BF0E
:1014900022EA080242EA0802CCF800207A685FEAF1
:1014A0008B3354BF22EA080242EA08027A605FEAFC
:1014B000CB333A684FF6FF7B54BF22EA080242EA78
:1014C00008023A600127C1F2100B0E680AF1010A06
:1014D00036FA0AF204F1040400F0A48007FA0AF8CC
:1014E00016EA080FF1D04A685A4511DC122A51D881
:1014F000DFE802F0340A42465050505050505050ED
:101500005050505050494D00D1F80C9042E000BF6F
:101510004FF6FF73C1F221039A420FDC0023C1F2A0
:1015200011039A421AD00023C1F212039A4215D035
:101530000023C1F221039A4210D02BE00023C1F214
:1015400022039A420AD00023C1F231039A4205D005
:101550000023C1F232039A421CD100BF8A6842B113
:10156000012A14BFC0F81480C0F810804FF0080999
:1015700010E04FF004090DE0CA6802F1080909E023
:101580004FF0000906E0CA6802F1040902E0CA68E7
:1015900002F10C0922460346BAF1080F24BF203A93
:1015A00004331D680EFA02F6B54309FA02F22A4323
:1015B0001A60CA79D2067FF588AF41F21803C4F2E7
:1015C00002031A684FEA9A0B42F001021A601A6885
:1015D00004F00C0702F001020192019A40F200426D
:1015E000C4F20102A2F57E7252F82B3040F60006DA
:1015F0000EFA07F5C4F20106B04223EA05050FD042
:1016000040F60043C4F2010398423FF428AF41F290
:101610000003C4F201039842009B08BF02231FE7A6
:1016200000231DE702B0BDE8F08F0000806808408D
:1016300018BF012070470000002A08BF090401619B
:101640007047000040F21430C2F20000006870479A
:1016500040F2040040F21431C2F20000C2F2000174
:1016600000780A68104408607047000080B542F2B4
:101670000000C4F20200016841F010010160032083
:1016800000F08AF80F2000F005F800F027F800209D
:1016900080BD000070B540F20406C2F2000640F2C0
:1016A0000C013278C2F200014FF47A730968B3FB7F
:1016B000F2F20446B1FBF2F1084600F04DFB0F2CAC
:1016C0004FF0010508D838B94FF0FF30214600220D
:1016D000002500F035F87460284670BD82B041F2F4
:1016E0001800C4F202000168022241F00101016009
:1016F000016801F0010101910199416841F08051B7
:101700004160406800F08050009000980420C4F2CE
:101710000100016862F31A61016002B070470000C5
:10172000002848BF704700F01F01012202FA01F1B2
:101730004EF200124009CEF2000242F8201070472B
:1017400010B54EF60C5CCEF2000CDCF80030C3F3A2
:10175000022E8EF00704042C28BF0424BEF10303DC
:101760004FF0FF3E0EFA04F438BF0023A143994026
:101770000EFA03F39A4300F00F03043B1143634452
:1017800009010C3300F16042B0F1FF3FC8BF02F520
:101790006443197010BD00004EF60C51CEF20001EA
:1017A0000A684FF6FF031A4060F30A2242F0806095
:1017B00040F0FD70086070472DE9F04381B00028CB
:1017C00000F0838042F20008C4F202080446D8F810
:1017D00000000D4600F0070088420CD2D8F8000047
:1017E00020F007002843C8F80000D8F8000000F0F7
:1017F0000700A84269D1206841F204098107C4F2B8
:10180000020917D5410705D5D9F8001041F4E06168
:10181000C9F80010010705D5D9F8001041F460514E
:10182000C9F80010D9F80010A26821F0F0011143A6
:10183000C9F80010C00741D1D8F8000000F0070037
:10184000A8420CD9D8F8000020F007002843C8F8B7
:101850000000D8F8000000F00700A84235D1206849
:10186000410707D5D9F80010E26821F4E06111437F
:10187000C9F80010000708D5D9F80000216920F444
:10188000605040EAC100C9F80000D9F8002002F019
:101890000C00082841F20020C0F27A004BD145F636
:1018A0001223C2F38341C0F60003595CD20336D43D
:1018B00040F60010C0F23D0048433CE0606801285B
:1018C00007D159F8041C89030CD4012001B0BDE8EC
:1018D000F08359F8041C022802D18901F5D501E0F2
:1018E0008907F2D5D9F8001021F003010843C9F89F
:1018F0000000FFF7A7FE064641F28837D9F800003E
:10190000616800F00C00B0EB810F95D0FFF79AFEF4
:10191000801BB842F2D9032001B0BDE8F083D9F8AA
:10192000002045F61023C2F34042C0F600039A5C43
:101930004843B0FBF2F0D9F8001045F6F812C1F3B5
:101940000311C0F60002515C40F20C0220FA01F1D2
:1019500040F20800C2F200000068C2F2000211600A
:10196000FFF798FE002001B0BDE8F08340F20C00C4
:1019700041F20401C2F20000C4F2020100680968E9
:1019800045F60822C1F30221C0F60002515CC840AE
:101990007047000040F20C0041F20401C2F2000066
:1019A000C4F202010068096845F60822C1F3C221A9
:1019B000C0F60002515CC840704700002DE9F041BC
:1019C00082B0002867D00446007841F20006C007C4
:1019D000C4F2020624D0706800F00C0004281AD06B
:1019E000706800F00C00082802D17068C00312D49F
:1019F0006068002800F04181B0F5803F07D0316871
:101A0000B0F5A02F40F06E8141F480203060306846
:101A100040F480306CE13068800301D56068D0B359
:101A20002078800718D5706810F00C0F07D0706808
:101A300000F00C00082856D17068C00353D43068F9
:101A4000800702D52069012825D13068616920F01E
:101A5000F80040EAC1003060207800071FD42078E9
:101A6000400731D4E56995B1706800F00C00082892
:101A700040F08B80012D0ED07068216A00F4803216
:101A80008A4208D1616A00F47010884203D10020B4
:101A900002B0BDE8F081012002B0BDE8F081A0698C
:101AA000B8B30020C4F242200121C0F88014FFF72F
:101AB000C9FD0546706A800700F18A80FFF7C2FD04
:101AC000401B0228F6D920E1F069C00033D4F06948
:101AD0004FF0010840F08050F061F06900F0805054
:101AE0000090009829E02069002840F20000C4F22C
:101AF000422000F0978001210160FFF7A3FD054619
:101B000030688007A1D4FFF79DFD401B0228F7D95C
:101B1000FBE00020C4F242200021C0F88014FFF74F
:101B200091FD0546706A800799D5FFF78BFD401B34
:101B30000228F7D9E9E04FF0000847F20007C4F2A5
:101B400000073868C00510D4386840F480703860E9
:101B5000FFF778FD054600BF3868C00505D4FFF7DC
:101B600071FD401B6428F7D9CFE0E06800286BD0F6
:101B7000012806D0316A052840F0968041F0040023
:101B80003062306A40F0010094E00027C4F242273E
:101B900000203866FFF756FD022D05460CD100BF28
:101BA0003068800140F1B580FFF74CFD401B0228F2
:101BB0004FF00300F4D96BE7306880017FF567AF21
:101BC000FFF740FD401B02284FF00300F4D95FE708
:101BD00040F20C00C2F20000006844F6D351C1F29A
:101BE0006201A0FB0101480A019000BF00BF0198FB
:101BF000411E002801913FF432AF00BF0198411E01
:101C0000002801913FF42BAF00BF0198411E00282E
:101C100001913FF424AF00BF0198411E00280191BB
:101C2000E4D11CE700210160FFF70CFD054600BF71
:101C3000306880077FF510AFFFF704FD401B0228D6
:101C40004FF00300F4D923E7306A20F0010030623E
:101C5000306A20F004003062FFF7F4FC054641F2E0
:101C6000883700BF306A800733D5FFF7EBFC401B95
:101C7000B8424FF00300F5D90AE7306820F480300D
:101C80003060306820F480203060FFF7DBFC0546D0
:101C9000306880037FF5C4AEFFF7D4FC401B642896
:101CA0004FF00300F4D9F3E621F001003062306A0E
:101CB00020F004003062FFF7C5FC054641F288378A
:101CC000306A800705D4FFF7BDFC401BB842F7D946
:101CD0001BE0B8F1000F3FF4C5AEF06920F0805072
:101CE000F061BFE621F480303060306820F480205D
:101CF0003060FFF7A7FC0546306880033FF590AEE3
:101D0000FFF7A0FC401B6428F6D9032002B0BDE811
:101D1000F081206AB0F5803F05D17168A26821F496
:101D20000031114371607168626A21F474111043CB
:101D30000843706001203866FFF784FC044600BF4A
:101D4000306880013FF5A3AEFFF77CFC001B022842
:101D50004FF00300F4D99BE6411E0020B0EB116F59
:101D60001CBF012070474EF21002CEF200025160FB
:101D70004EF62351CEF20001F0230B700721906044
:101D8000116070477047000070470000B0B590F8D0
:101D90003C20012A04BF0220B0BD01F108053CCD62
:101DA000D1E900CE23F47C5322F470521A432EF46E
:101DB000F0431A432CF4E0431A4324F4C0431A437B
:101DC0002A43C96922F480420368114359640021FF
:101DD00080F83C100846B0BD10B590F83C20012AB0
:101DE0004FF0020235D0012380F83C3080F83D20CE
:101DF0000268D2F804E0D2F808C00C682EF0700334
:101E0000234340F2FF74C4F20004A242536009DC91
:101E1000B2F1804F12D040F20043C4F200039A4264
:101E20000CD010E042F60043C4F201039A4205D000
:101E300040F60003C4F200039A4204D149682CF032
:101E40008003194391600121002280F83D1080F841
:101E50003C20104610BD0000002804BF0120704740
:101E600010B5044690F83D0028B9002084F83C00E5
:101E7000204600F067F8022084F83D00206840F218
:101E8000FF730268C4F2000342F6004C9842C4F2A9
:101E9000010C14DCB0F1804F19D040F20041C4F2C3
:101EA0000001884213D0984217DCB0F1804F1CD05B
:101EB00040F20041C4F20001884216D019E06045AA
:101EC00005D040F60001C4F200018842EBD1A168C0
:101ED00022F070020A439842E7DD604505D040F6E3
:101EE0000001C4F20001884203D1216922F440724A
:101EF0000A43A36922F08001D4F804E0E2681943A0
:101F000060450160C262C0F828E002D16169CCF886
:101F1000301001214161002084F8461084F83E1001
:101F200084F83F1084F8401084F8411084F842107F
:101F300084F8431084F8441084F8451084F83D1068
:101F400010BD000080B582B0006840F2FF71C4F29D
:101F50000001884217DCB0F1804F32D040F20041DE
:101F6000C4F20001884251D141F21C00C4F20200C7
:101F7000016841F002010160006800F00200019078
:101F8000019802B080BD40F60001C4F20001884211
:101F90002FD042F60041C4F20101884236D141F20D
:101FA0001C00C4F2020050F8041C41F4006140F827
:101FB000041C50F8040C00F400600190019802B079
:101FC00080BD41F21C00C4F202000168002241F011
:101FD000010101600068012100F0010001900198F9
:101FE0001C20FFF7ADFB1C2002B0BDE88040FFF7CE
:101FF00097BB41F21C00C4F20200016841F00401E9
:102000000160006800F004000190019802B080BDFA
:1020100090F83D1001291CBF01207047022180F873
:102020003D10006840F2FF72C168C4F200029042A5
:1020300041F00101C16009DCB0F1804F12D040F2E3
:102040000041C4F2000188420CD012E042F6004187
:10205000C4F20101884205D040F60001C4F200013B
:10206000884206D1816801F00701062904BF0020DB
:102070007047016841F001010160002070470000D5
:1020800080B590F83C20012A4FF0020200F0C28097
:10209000012380F83C3080F83D20D0F800C04FF696
:1020A0007772DCF8083023EA0202CCF808200B68CB
:1020B0004F2B28DC1F2B43DD202B44D0302B42D06C
:1020C000402B40F0A980D1F804E0C968DCF820304A
:1020D000DCF8202022F00102CCF82020DCF81820C7
:1020E00022F0F00242EA011123F00A0242EA0E0253
:1020F000CCF81810CCF82020DCF8081041F047018B
:1021000021F030017DE06F2B25DDB3F5005F46D077
:10211000B3F5805F77D0702B7ED1D1E901E3C96838
:10212000DCF8082043EA0E0322F47F4243EA01214F
:102130001143CCF80810DCF8081041F0770160E09A
:102140000BB1102B68D1DCF8081021F07001194395
:1021500041F0070155E0502B34D0602B5CD1D1F811
:1021600004E0C968DCF82030DCF8202022F01002FE
:10217000CCF82020DCF8182022F4704242EA013129
:1021800023F0A00242EA0E12CCF81810CCF820205E
:10219000DCF8081041F0670121F0100131E0D1E9CD
:1021A00001E3C968DCF8082043EA0E0322F47F4209
:1021B00043EA01211143CCF80810DCF8081041F47F
:1021C00080411EE0D1F804E0C968DCF82030DCF87A
:1021D000202022F00102CCF82020DCF8182022F088
:1021E000F00242EA011123F00A0242EA0E02CCF8A0
:1021F0001810CCF82020DCF8081041F0570121F02D
:102200002001CCF808100022012180F83D100021A7
:1022100080F83C10104680BD0122F5E770470000B1
:1022200010B5016804460869800744BFC8685FEAC2
:10223000807038D40869400744BFC8685FEA4070BE
:102240003DD40869000744BFC8685FEA007043D402
:102250000869C00644BFC8685FEAC06048D408691E
:10226000C0071CBFC8685FEAC0704ED1086900068D
:1022700044BFC8685FEA00604FD40869400644BFA5
:10228000C8685FEA406050D40869800646BFC868E5
:102290005FEA806010BD6FF0200220460A61BDE851
:1022A0001040FFF771BD6FF0020008610120207738
:1022B0008869800741D02046FFF7B0FF43E06FF008
:1022C0000400086102202077886910F4407F3ED026
:1022D0002046FFF7A3FF40E06FF0080008610420EC
:1022E0002077C86980073CD02046FFF797FF3EE083
:1022F0006FF01000086108202077C86910F4407F53
:1023000039D02046FFF78AFF3BE06FF001000861FB
:10231000204600F0D9FA2168A8E76FF08000086134
:102320002046FFF72FFD2168A7E76FF04000086106
:10233000204600F0D9FA2168A6E7204600F082F88E
:10234000204600F0FBF921680020207772E7204644
:1023500000F078F8204600F0F1F92168002020779D
:102360006FE7204600F06EF8204600F0E7F921689C
:10237000002020776CE7204600F064F8204600F04B
:10238000DDF921680020207769E7000080B586B07C
:10239000006840F20041C4F2000188424FF00001A1
:1023A000CDE90411CDE902111BD040F60001C4F2C1
:1023B0000001884229D042F60041C4F2010188425E
:1023C0003ED141F21800C4F20200016841F004015C
:1023D0000160006800F00400019001984FF48070E3
:1023E0000DE041F21800C4F20200016841F004015E
:1023F0000160006800F00400019001984020029004
:1024000040F60000C4F2010014E041F21800C4F2EA
:102410000200016841F008010160006800F0080056
:10242000019001984020029040F60000C4F20100A3
:1024300000F5806002210391059102A9FEF7EEFFED
:1024400006B080BD704700002DE9F04190F83C30A7
:10245000012B04BF0220BDE8F0814FEAB202012344
:10246000032A80F83C3000F2EA80DFE802F0023B09
:1024700077B303681E6A1A6A22F001021A621A46CA
:10248000D3F804C052F8184F0D6824F073048F6815
:1024900044EA050E42F6004526F00204C4F20105A6
:1024A000AB4244EA07040CD1CD6824F00C04D1E916
:1024B000056725F004052C432CF440752E4346EAAD
:1024C000070CC3F804C0C3F818E04F6809695F63DC
:1024D0001C629F6947F008079F619F6927F0040706
:1024E0009F61A8E003681C6A1A6A24F0200422F0A5
:1024F00010021A621A46D3F804C052F8187F0E6808
:1025000027F4E6478D6847EA062E42F60046C4F2F5
:102510000106B34244EA05140FD1CD68D1E905871D
:102520006FF0400606EA05152CF4406624F0C0045E
:1025300046EA88062C4346EA870CC3F804C0C3F871
:1025400018E04F6809699F631C629F6947F4006740
:102550009F619F6927F480679F616BE003681C6A35
:102560001A6A24F4007422F480721A621A46D3F8AC
:1025700004C052F81C7F0E6827F073078D6847EA85
:10258000060E42F60046C4F20106B34244EA0524B0
:102590000FD1CD68D1E905872D0240F2FF46B54342
:1025A0002CF4405624F4406446EA08162C4346EACC
:1025B000071CC3F804C0C3F81CE04F680969DF6357
:1025C0001C62DF6947F00807DF61DF6927F0040755
:1025D000DF6130E003681C6A1A6A24F4005422F4B4
:1025E00080521A621A46D3F804C052F81C7F0E6853
:1025F00027F4E6478D6847EA062E42F60046C4F205
:102600000106B34244EA053404D14D692CF48047F5
:1026100047EA851CC3F804C0C3F81CE04F68096989
:102620001F641C62DF6947F40067DF61DF6927F41C
:102630008067DF61090213681943002311600021DC
:1026400080F83C101846BDE8F0810000002804BF67
:102650000120704710B5044690F83D0028B90020CD
:1026600084F83C00204600F067F8022084F83D0022
:10267000206840F2FF730268C4F2000342F6004C87
:102680009842C4F2010C14DCB0F1804F19D040F232
:102690000041C4F20001884213D0984217DCB0F127
:1026A000804F1CD040F20041C4F20001884216D095
:1026B00019E0604505D040F60001C4F200018842EF
:1026C000EBD1A16822F070020A439842E7DD604531
:1026D00005D040F60001C4F20001884203D121690F
:1026E00022F440720A43A36922F08001D4F804E086
:1026F000E268194360450160C262C0F828E002D177
:102700006169CCF8301001214161002084F8461045
:1027100084F83E1084F83F1084F8401084F841108B
:1027200084F8421084F8431084F8441084F845106B
:1027300084F83D1010BD0000704700007047000095
:1027400041B1082909D0042914BF00F1410200F168
:102750003F0204E000F13E0201E000F14002127885
:10276000012A1CBF01207047022241B1082909D06B
:10277000042914BF80F8412080F83F2004E080F84D
:102780003E2001E080F84020006801F01F01012296
:10279000036A8A4023EA02010162036A42F6444165
:1027A000C4F201011A43A1F14403984202620FD01E
:1027B00040F2FF71C4F20001884213DCB0F1804F97
:1027C0001CD040F20041C4F20001884216D01CE047
:1027D0000A6842F400420A6040F2FF71C4F200014C
:1027E0008842EBDD42F60041C4F20101884205D087
:1027F00040F60001C4F20001884206D1816801F070
:102800000701062904BF00207047016841F001015B
:10281000016000207047000080B5026801F01F0CC5
:10282000012303FA0CFE136A42F6444C23EA0E031A
:10283000C4F2010C1362D2F820E0ACF144039A42D6
:10284000C2F820E013D15CF824EC41F211131EEA27
:10285000030F0CD1D2F820E040F244431EEA030FEC
:1028600005D1DCF8003023F40043CCF80030D2F876
:1028700020C041F211131CEA030F06D1D2F820C088
:1028800040F244431CEA030F12D0082916D0042951
:1028900009D000294FF0010114BF80F8411080F8E1
:1028A0003E10002080BD012180F83F10002080BD37
:1028B000136823F0010313600829E8D1012180F88F
:1028C0004010002080BD000080B540F2F411C2F23B
:1028D000000100680968884218BF80BD01F02CFB28
:1028E000BDE8804000F0A0BC7047000070B582B029
:1028F000044690F84200202809D113460A460029D0
:102900004FF0010018BF002B04D102B070BD0220AF
:1029100002B070BD01202063002522206563A26201
:10292000A385656484F842002168E06B43F2A95CEA
:1029300043F2097E43F22D46C0F6000CC0F6000EAD
:10294000C0F600060431C0E90ACEC0E90C65FEF706
:1029500097FC0195206801680191416801910199F6
:10296000216929B350E8030F216840F4807041E8E1
:102970000302EAB1206850E8030F216840F4807038
:1029800041E80302A2B1206850E8030F216840F437
:10299000807041E803025AB1206850E8030F2168B3
:1029A00040F4807041E8030212B12068DAE700BF0A
:1029B000206850E8050F216840F0010041E8050259
:1029C000BAB3206850E8050F216840F0010041E8E3
:1029D000050272B3206850E8050F216840F001003D
:1029E00041E805022AB3206850E8050F216840F04D
:1029F000010041E80502002ADAD11AE0206850E817
:102A0000050F216840F0400041E80502DAB1206876
:102A100050E8050F216840F0400041E8050292B1FE
:102A2000206850E8050F216840F0400041E80502A9
:102A30004AB1206850E8050F216840F0400041E8A5
:102A40000502002ADAD1206B012839D1002000903C
:102A500021680A6800924A680092009A51E8031FB0
:102A6000226841F0100142E80313002B3FF44DAF00
:102A7000206850E8030F216840F0100041E803028D
:102A80000AB3206850E8030F216840F0100041E8C5
:102A90000302C2B1206850E8030F216840F0100023
:102AA00041E803027AB1206850E8030F216840F042
:102AB000100041E80302002A4FF00000D8D124E7BB
:102AC000012002B070BD002002B070BD40F2EC00E9
:102AD000C2F2000090F85C100A2906D140F27000A2
:102AE000C2F2000001218180704740F2700CC2F2F6
:102AF000000C9CF805305A1C18448CF8052080F80E
:102B00006610704770470000F0B581B00446006859
:102B10000168C268456901F02F03202B02F02003F1
:102B200006D12BB1204601B0BDE8F04000F0F8BD61
:102B30005FEA017C07D005F0010E12F4907F8EF061
:102B400001052FD175B3236B1140CA0618D5012B8F
:102B500016D100210091016800914168009100990F
:102B60004169490600F18481A18DE28DE38D002B3E
:102B70001CBF891A5FEA014240F0FD8001B0F0BD40
:102B80000A0600F12E824906F8D5C16821F04001FD
:102B9000C1602021204684F8411001B0BDE8F0401A
:102BA00000F03ABBCE0718BF12F4807603D0666CF3
:102BB00046F00106666401F00407012686EA9707DD
:102BC0002F4303D1676C47F00207676401F00207E7
:102BD00086EA5706354303D1656C45F00405656404
:102BE00053EA0E0318BF0123BCF1000F04D51BB13B
:102BF000636C43F008036364636C002BBED0114028
:102C0000890603D5204600F08BFD20684169626C7F
:102C100001F0400102F00802891800F0F38100BFC2
:102C200050E8030F216820F4907041E80302C2B31A
:102C3000206850E8030F216820F4907041E80302F7
:102C40007AB3206850E8030F216820F4907041E8BF
:102C5000030232B3206850E8030F216820F490701B
:102C600041E80302EAB12068DAE700BF206850E8D3
:102C7000050F216820F0010041E80502DAB1206863
:102C800050E8050F216820F0010041E8050292B1EB
:102C9000206850E8050F216820F0010041E8050296
:102CA0004AB1206850E8050F216820F0010041E892
:102CB0000502002ADAD1206B012824D1206850E8CF
:102CC000030F216820F0100041E80302DAB1206808
:102CD00050E8030F216820F0100041E8030292B190
:102CE000206850E8030F216820F0100041E803023B
:102CF0004AB1206850E8030F216820F0100041E835
:102D00000302002ADAD1202084F842000020206348
:102D100020684169490640F18E8150E8050F21681D
:102D200020F0400041E80502002A00F0728120688E
:102D300050E8050F216820F0400041E80502002A14
:102D400000F06781206850E8050F216820F04000FE
:102D500041E80502002A00F05C81206850E8050F78
:102D6000216820F0400041E80502002A00F051816E
:102D70002068D2E7206850E8030F226820F49070A2
:102D800042E80303BBB3206850E8030F226820F435
:102D9000907042E8030373B3206850E8030F226881
:102DA00020F4907042E803032BB3206850E8030F2F
:102DB000226820F4907042E80303002BDAD11AE075
:102DC000206850E8050F226820F0010042E8050362
:102DD000DBB1206850E8050F226820F0010042E8CE
:102DE000050393B1206850E8050F226820F0010028
:102DF00042E805034BB1206850E8050F226820F037
:102E0000010042E80503002BDAD1202084F84200BB
:102E100000202063206850E8030F226820F0100093
:102E200042E80303DBB1206850E8030F226820F07A
:102E3000100042E8030393B1206850E8030F2268B2
:102E400020F0100042E803034BB1206850E8030F64
:102E5000226820F0100042E80303002BDAD102229E
:102E600089B22046626301B0BDE8F040FFF72EBE94
:102E7000E26B11684B689EB2002E3FF47FAEA18DCD
:102E80008E42BFF47BAEE3859269202A00F09E80DB
:102E900050E8030F216820F4807041E80302E2B19A
:102EA000206850E8030F216820F4807041E8030295
:102EB0009AB1206850E8030F216820F4807041E83F
:102EC000030252B1206850E8030F216820F480709B
:102ED00041E803020AB12068DAE7206850E8050FEC
:102EE000216820F0010041E80502BAB3206850E8EB
:102EF000050F216820F0010041E8050272B3206847
:102F000050E8050F216820F0010041E805022AB3CE
:102F1000206850E8050F216820F0010041E8050213
:102F2000002ADAD11AE0206850E8050F216820F065
:102F3000400041E80502DAB1206850E8050F216839
:102F400020F0400041E8050292B1206850E8050FEA
:102F5000216820F0400041E805024AB1206850E8AD
:102F6000050F216820F0400041E80502002ADAD16F
:102F7000202084F8420000202063206850E8030FDE
:102F8000216820F0100041E80302DAB1206850E81F
:102F9000030F216820F0100041E8030292B120687D
:102FA00050E8030F216820F0100041E803024AB105
:102FB000206850E8030F216820F0100041E8030268
:102FC000002ADAD1E06BFDF7C9FFA18D0220606312
:102FD000E08D081A81B2204601B0BDE8F040FFF74D
:102FE00075BD94F8411021297FF4C8ADA168B1F5F1
:102FF000805F01D1216921B3216A4A1C22620978CC
:10300000416025E02046FFF77DFD0020606401B0AF
:10301000F0BDE06B78B143F22141C0F6000141639D
:10302000FDF7C0FF00283FF4A9ADE06B416B01B094
:10303000BDE8F0400847204601B0BDE8F040FFF78A
:1030400061BD216A31F8022B6FF35F224260216279
:10305000E18C01390A04E1847FF490ADC16821F06C
:103060008001C160C16841F04001C16001B0F0BDA4
:10307000002804BF0120704710B5044690F84100B5
:1030800028B9002084F84000204600F05FF8242092
:1030900084F841002068D4E90212C36823F4005385
:1030A000C360036923F440531A430261D4E9042343
:1030B0001143C268194341F20C639A431143C16042
:1030C0004169A26921F44071114343F60002C4F240
:1030D00001029042416102D0FEF748FC01E0FEF798
:1030E00059FC6268192148439100B0FBF1F048F2A5
:1030F0001F51C5F2EB11A0FB01235A096FF06303C6
:1031000002FB0300322303EB0010A0FB0101F023BC
:1031100003EA5113206803EB0212C1F34311114477
:103120008160016921F490410161416921F02A0126
:103130004161C16841F40051C160002020216064F8
:1031400084F8411084F84210606310BDF0B585B07A
:10315000002740F600450497CDE902770446C4F203
:1031600001050068A5F544418842019701D005B0EA
:10317000F0BD41F21800C4F20200416801AE41F412
:1031800080214160416801F480210091009901682B
:1031900041F0080101600068314600F0080000902D
:1031A00000984FF480600190022002900320049068
:1031B0002846FEF733F94FF40060CDE901072846B1
:1031C00031460397FEF72AF940F268153020C2F223
:1031D0000005C4F2020080212022C5E9000728462C
:1031E000C5E90271C5E90477C5E90627FEF704F8C9
:1031F000002818BFFDF7ACFE272001210022E5635F
:103200006C62FEF79DFA2720FEF78AFA05B0F0BD42
:10321000704700007047000070470000FEE70000A4
:10322000FEE70000FEE700002DE9F04F81B040F21C
:103230007008C2F20008D8F80C00D8F84410D8F88A
:103240001C40D8F84C600131C8F8441001F06AFF06
:1032500048F20003C4F27603002201F02FFE40F290
:103260000043C4F29C03002201F058FC01F010FC62
:103270000146C8F82000204602F07EFA0090C8F807
:1032800048003046314601F079FFD8F850108146A9
:1032900002F0A6F9D8F854B082463046594602F0FA
:1032A0009FF90146304602F09BF90146504601F075
:1032B00065FFD8F8585004462846294601F05EFFBD
:1032C0002146074601F05AFF0446C8F85C00304624
:1032D000314602F085F9594602F082F9002106468E
:1032E000CCF28001284602F07BF90146304601F01D
:1032F00045FF514602F040FAC8E91807DDF800A082
:1033000005465046214602F06BF9D8F8684006465B
:103310002846214602F064F90146304601F02EFFAE
:10332000D8F86C100546384602F05AF9014628468E
:1033300001F024FFD8F870100546484602F050F915
:103340000146284601F01AFF494601F0AFFFC8E9DF
:103350001AA40024C4F27E3421460546C8E91C00A4
:1033600001F08AFF18B9C8F87440254610E000241F
:10337000CCF27E342846214601F077FF18B9254665
:10338000C8F8744015E02846002101F075FF50B9D7
:1033900028464FF07A5102F023F902F099F80446DA
:1033A0000025012212E028460021002401F05DFFE3
:1033B00020BB28464FF07A5102F012F902F06CF867
:1033C0000446002848BF64420125002240F2AC10A8
:1033D000C2F2000000684FF40071446340F600043C
:1033E000C4F201042046FEF727F920464FF480611D
:1033F0002A4601B0BDE8F04FFEF71EB900220025B5
:10340000E4E700007047000070470000FEF720B9B5
:103410007047000040F2F410C2F20000FEF700BF57
:10342000406A0021C185C184FFF76CBB406A016816
:103430004A6990F84130212B2DD112F080022AD018
:103440000022C28451E8031F026821F0C00142E853
:103450000313E3B1016851E8031F026821F0C001C2
:1034600042E803139BB1016851E8031F026821F091
:10347000C00142E8031353B1016851E8031F026819
:1034800021F0C00142E803130BB10168DAE7202103
:1034900080F8411001684A6990F84230222B7DD1B2
:1034A00012F040027AD00022C28500BF51E8031F0B
:1034B000026821F4907142E80313C3B3016851E834
:1034C000031F026821F4907142E803137BB3016883
:1034D00051E8031F026821F4907142E8031333B3EB
:1034E000016851E8031F026821F4907142E8031358
:1034F000EBB10168DAE700BF016851E8051F026817
:1035000021F0010142E80513DBB1016851E8051F14
:10351000026821F0010142E8051393B1016851E806
:10352000051F026821F0010142E805134BB1016853
:1035300051E8051F026821F0010142E80513002B44
:10354000DAD1016B012924D1016851E8031F026817
:1035500021F0100142E80313DBB1016851E8031FB9
:10356000026821F0100142E8031393B1016851E8A9
:10357000031F026821F0100142E803134BB10168F8
:1035800051E8031F026821F0100142E80313002BE9
:10359000DAD1202180F8421000210163416C41F012
:1035A00010014164FFF7AEBA0168406A09688906F4
:1035B00000F19F800021C185016851E8031F026866
:1035C00021F4807142E80313E3B1016851E8031F5D
:1035D000026821F4807142E803139BB1016851E84D
:1035E000031F026821F4807142E8031353B101689C
:1035F00051E8031F026821F4807142E80313002B95
:10360000DAD100BF016851E8051F026821F001010D
:1036100042E80513BBB3016851E8051F026821F0B9
:10362000010142E8051373B3016851E8051F026800
:1036300021F0010142E805132BB3016851E8051F91
:10364000026821F0010142E80513002BDAD11AE0EB
:10365000016851E8051F026821F0400142E80513A6
:10366000DBB1016851E8051F026821F0400142E822
:10367000051393B1016851E8051F026821F040016C
:1036800042E805134BB1016851E8051F026821F0BB
:10369000400142E80513002BDAD1202180F84210C6
:1036A000016B012925D100BF016851E8031F0268A1
:1036B00021F0100142E80313DBB1016851E8031F58
:1036C000026821F0100142E8031393B1016851E848
:1036D000031F026821F0100142E803134BB1016897
:1036E00051E8031F026821F0100142E80313002B88
:1036F000DAD100214163016B012918BFFFF788BDB2
:10370000818DFFF7E3B90000406A01214163016B3D
:10371000012918BFFFF77EBD818D4908FFF7D6B993
:1037200081B090F84210222920D18368B3F5805FE0
:1037300008D10169002964D000F128010A680368F2
:103740005B680AE0014651F8282F13B90369002B82
:10375000F5D003685B6803F07F0313700A680132D9
:103760000A60C18D01390A04C18501D001B07047DA
:103770000168CA6822F02002CA60CA6822F4807216
:10378000CA604A6922F001024A61202280F8422080
:1037900000224263036B012B3CD1026351E8031FFB
:1037A000026821F0100142E803130168DBB151E81F
:1037B000031F026821F0100142E80313016893B16E
:1037C00051E8031F026821F0100142E80313016869
:1037D0004BB151E8031F026821F0100142E80313C6
:1037E0000168002BDAD10A68D20606D500220092C1
:1037F0000A680092496800910099818D01B0FFF735
:1038000065B90168826A49686FF35F2122F8021B7B
:103810008262A6E701B0FFF7FBBC000040F2CC20BB
:10382000C2F20000FFF770B9FEE7000098B0FDF7A4
:103830001DFF002401204FF48031CDE90544CDE97E
:1038400003440090CDE90114049002254FF4801048
:10385000CDE90751099068460E94CDE90C44CDE9B5
:103860000A44FEF7ABF820B1EFF3108072B600BF48
:10387000FEE70F20CDE90A054FF480600C94CDE9F6
:103880000D040AA801214FF0010BFDF795FF20B1AF
:10389000EFF3108072B600BFFEE7002741F218096F
:1038A0000397C4F20209D9F8000040F6004840F03E
:1038B0002000C9F80000D9F80000C4F2010800F0A7
:1038C00020000A900A98D9F80000A8F5806640F018
:1038D0000400C9F80000D9F800004FF4C66100F0F8
:1038E00004000A900A98D9F80000002240F008006D
:1038F000C9F80000D9F800004FF4C66400F00800D1
:103900000A900A983046FDF797FE404641F2300192
:103910000022FDF791FE40F2000A6D46C1F2210A35
:1039200030462946CDF800B0CDE901ABFDF776FD74
:1039300048F202008DE8810830462946FDF76EFD09
:10394000CDE9004B02243046294602970394FDF747
:1039500065FDAAF580100094CDE9010B404629468B
:10396000FDF75CFD04208DE8810840462946FDF7FF
:1039700055FD4FF4805640462946CDE9006BCDE910
:103980000244FDF74BFD4FF40C50CDE900074046D3
:1039900029460294FDF742FD08208DE8010C4046BF
:1039A0002946FDF73BFD3020CDE9000B4046294676
:1039B000CDE90274FDF732FD062002210022FDF759
:1039C000BFFE0620FDF7ACFE072002210022FDF716
:1039D000B7FE0720FDF7A4FE092001210022FDF714
:1039E000AFFE0920FDF79CFE59F8040C002140F0C1
:1039F000010049F8040C59F8040C002200F0010001
:103A0000009000980D20FDF79BFE0D20FDF788FE2D
:103A100040F2AC1008F50051C2F20000FE23CDE9DF
:103A20001677CDE91477CDE912771097CDE90E77A7
:103A3000CDE90C77CDE90A77CDE90677CDE90477B2
:103A4000CDE90277CDE9007740F2597280E886002F
:103A5000C0E90337C0E90577FEF7FEF918B1EFF3C7
:103A6000108072B6FEE740F2AC10C2F2000014A95A
:103A70001496FEF705FB20B1EFF3108072B600BF7D
:103A8000FEE740F2AC10C2F20000FEF7DFFD20B10D
:103A9000EFF3108072B600BFFEE740F2AC100024D6
:103AA000C2F2000012A9CDE91244FEF795F920B147
:103AB000EFF3108072B600BFFEE76020CDE90A0484
:103AC00040F2AC10C2F200000AA90022CDE90C4479
:103AD000CDE90E441094FEF7B7FC20B1EFF310804F
:103AE00072B600BFFEE700244FF400500494CDE905
:103AF0000244CDE90044059040F2AC10C2F200004F
:103B000069460794FEF742F918B1EFF3108072B6D8
:103B1000FEE740F2AC10C2F20000FEF737FC40F2C4
:103B2000F410C2F200004FF080416323CDE902445B
:103B3000CDE90044CDE90A4441F2BF2280E81600F5
:103B4000C0E903348461FEF787F920B1EFF31080F8
:103B500072B600BFFEE74FF48050009040F2F410C0
:103B6000C2F200006946FEF78BFA20B1EFF3108035
:103B700072B600BFFEE740F2F4100024C2F200006B
:103B80000AA9CDE90A44FEF727F918B1EFF310802E
:103B900072B6FEE740F23C20A8F58431C2F2000084
:103BA000FE23CDE90C44CDE90A44CDE91444069442
:103BB000CDE90444CDE90244CDE9004440F2597214
:103BC00080E81600C0E903348461FEF745F918B1B6
:103BD000EFF3108072B6FEE74FF480500A9040F287
:103BE0003C20C2F200000AA9FEF74AFA18B1EFF32E
:103BF000108072B6FEE740F23C20C2F20000FEF7F1
:103C000025FD18B1EFF3108072B6FEE740F23C20BC
:103C10000024C2F2000014A9CDE91444FEF7DCF838
:103C200018B1EFF3108072B6FEE76020CDE9000412
:103C300040F23C20C2F20000694600220294049443
:103C4000FEF702FC18B1EFF3108072B6FEE740F207
:103C50003C20C2F20000FEF799FB40F284200021D4
:103C6000A8F58232C2F2000040F25973FE27CDE976
:103C70000C11CDE90A11CDE914110691CDE9041119
:103C8000CDE90211CDE90011C0E90023C0E9021716
:103C900001618161FEF7E0F818B1EFF3108072B6B0
:103CA000FEE74FF480500A9040F28420C2F20000F8
:103CB0000AA9FEF7E5F918B1EFF3108072B6FEE736
:103CC00040F28420C2F20000FEF7C0FC18B1EFF30E
:103CD000108072B6FEE740F284200024C2F2000099
:103CE00014A9CDE91444FEF777F818B1EFF310806A
:103CF00072B6FEE76020CDE9000440F28420C2F2F3
:103D000000006946002202940494FEF79DFB18B15E
:103D1000EFF3108072B6FEE740F28420C2F200009A
:103D2000FEF734FB40F2CC20A8F54441C2F200007B
:103D300000250C234FF4165280E82600C0E90355F5
:103D4000C0E90535C561FFF793F918B1EFF31080AD
:103D500072B6FEE740F2EC06C2F2000640F2CC205A
:103D600006F15C01C2F200000122FEF7BFFD40F245
:103D70006810C2F20000006840F2AC180168C2F29C
:103D8000000821F00401016040460021FEF7D8FC44
:103D900040F2F410C2F20000FEF73AF940F23C2A79
:103DA000C2F2000A50460021FEF7CAFC40F2842B02
:103DB000C2F2000B58460021FEF7C2FC40F2700927
:103DC0004DF20A70C2F20009C3F62340C9F84C0054
:103DD0000020C4F20220C9F8500049F69A10C4F23B
:103DE000B100C9F8580041F26F200027C3F68320C4
:103DF000C4F270274CF6CD41C9F85400C3F60C71DB
:103E0000C6E9007046F26660B160C4F25E104DF221
:103E10000A7145F62224C3F6A341C6E90655C6E950
:103E20000855C6E90A5009F10500C0F60004C9F8B2
:103E3000205089F80650C9F84850C9F82C50C9E9F3
:103E40001A55C9E91C55C9F87850C9F83850C6E95F
:103E50000C11C9F84450C9E90955C9E90C55C9E91B
:103E6000065589F80450C6E91155C6E91355C6E947
:103E70001555C9F83C50A9F808500DE040460021FE
:103E8000FEF75EFC50460021FEF75AFC5846002122
:103E9000FEF756FC09F1040005700120FDF73EFA1B
:103EA00099F804000128F8D1D6F86610304640F899
:103EB000701F30F8021C50F8062C01812146426028
:103EC000C6F8665040F8065C20F8025CFCF78AF9F8
:103ED00068B1002100F0A6FD0021C4F2202101F00C
:103EE0007FFB4FF0765101F07BFBC9F81C000020EE
:103EF0002146FCF777F958B1002100F093FD3946CF
:103F000001F06EFB4FF0765101F06AFBC9F8280012
:103F100000202146FCF766F90028AFD0002100F010
:103F200081FD394601F05CFB4FF0765101F058FB02
:103F3000C9F83400A2E7000070B540F60044C4F2AE
:103F4000010420464FF40051FDF770FB40F270066B
:103F5000C2F20006307020464FF48071FDF766FB18
:103F6000707020464FF40071FDF760FB3278B16944
:103F7000012AB07008BF002902D001290DD02CE021
:103F800040F2AC10C2F2000000210025FEF744FC14
:103F90000120F560C6E90605356240F2AC10C2F2B8
:103FA00000000021FEF7CCFB0020356AC4F2AF30E0
:103FB0000021F061C4F2AA31284601F05DF960B930
:103FC00048F20001C4F2B131284601F04EF920B99F
:103FD0000020F060C6E9060030627178706A01293D
:103FE00008BF002802D001280DD02DE040F23C206F
:103FF000C2F2000000210025FEF70EFC0120356111
:10400000C6E90905F56240F23C20C2F20000002139
:10401000FEF796FB4CF20000F56AC4F2284000213E
:10402000B062C4F22841284601F026F960B948F28E
:104030000001C4F22941284601F017F920B90020F7
:104040003061C6E90900F062B178306B012908BF20
:10405000002802D001282DD10CE040F28420C2F2C9
:10406000000000210025FEF7D7FB01207561C6E99D
:104070000C05B56340F28420C2F200000021FEF777
:104080005FFB0020B56BCCF2B23000217063CCF244
:10409000B731284601F0F0F860B948F20001CCF2DF
:1040A000AF31284601F0E1F820B900207061C6E97F
:1040B0000C00B06320464FF48051FDF7B7FAF07062
:1040C00070BD23F07F4720F07F4C80EA030000F0B2
:1040D0000040ACEB070303F57C5303F1FF032DE92C
:1040E000804909B44FEA144324EA03484FEA154BC8
:1040F00025EA0B4E0FF2042606EB13273E7803FB4E
:104100000667C7F5000707FB06F64FEAD64606F135
:1041100002064FEA543707FB066CCCF1005C4FEA0D
:104120001C472CEA074C0CFB06F507FB06F404EBD6
:1041300015464FEA961649085FEA320234BF00205E
:104140004FF000404FEAD13706FB07FC4FEA1C4C0A
:104150000CFB0BF7D21B03FB0CF761EB07010CFB0D
:104160000EF7B0EB074072EB17420CFB08F734BFB9
:10417000A2EB0742B2EB074261EB17414FEA0C4456
:104180004FEA910706FB07FC4FEA1C4C0CFB0BF7B0
:10419000B0EBC74072EB573203FB0CF734BFA2EB16
:1041A000C742B2EBC74261EB57310CFB0EF7B0EBE5
:1041B000C70072EB57720CFB08F734BFA2EBC702C3
:1041C000B2EBC70261EB57714FEA816141EA92118C
:1041D0004FEA826242EA90124FEA806004EBCC041C
:1041E000039F4FEAD13706FB07FC4FEA1C4C0CFB40
:1041F0000BF7D21B03FB0CF761EB07010CFB0EF76F
:10420000B0EB074072EB17420CFB08F734BFA2EB90
:104210000742B2EB074261EB17414FEA8C5504EBC2
:104220009C244FEA910706FB07FC4FEA1C4C0CFB51
:104230000BF7B0EBC74072EB573203FB0CF734BF00
:10424000A2EBC742B2EBC74261EB57310CFB0EF752
:10425000B0EBC70072EB57720CFB08F734BFA2EB50
:10426000C702B2EBC70261EB57714FEA816141EAC5
:1042700092114FEA826242EA90124FEA806015EB97
:104280004C2544F100044FEAD13706FB07FC4FEA06
:104290001C4C0CFB0BF7D21B03FB0CF761EB07016B
:1042A0000CFB0EF7B0EB074072EB17420CFB08F764
:1042B00034BFA2EB0742B2EB074261EB17414FEA72
:1042C000813141EA92414FEA823242EA90424FEA1A
:1042D00080304FEA0C7615EB1C1544F1000448EAD7
:1042E00003434EEA0B484FF0000EB2EB080C71EBA3
:1042F000030724BF624639464EEB0E0E4FF0000B0B
:104300000018524149414BEB0B0BB2EB080C71EB1F
:1043100003077BF1000B24BF624639464EEB0E0EBD
:104320004FF0000B0018524149414BEB0B0BB2EB25
:10433000080C71EB03077BF1000B24BF6246394682
:104340004EEB0E0E51EA020718BF46F0010616EBBF
:104350000E7655F1000254F1000103D5BDE8890144
:10436000BDE80088BDE88901BDE80048B6195241A2
:1043700041EB0101A3F10103704780807F7E7D7CCA
:104380007B7A7978777676757473727171706F6EE7
:104390006E6D6C6C6B6A6A69686867666665646492
:1043A000636362616160605F5F5E5E5D5D5C5C5B1C
:1043B0005B5A5A595958585757565655555554548B
:1043C000535352525251515050504F4F4F4E4E4DE9
:1043D0004D4D4C4C4C4B4B4B4A4A4A494949484835
:1043E0004847474747464646454545444444444375
:1043F00043434342424242414141000010B546EA34
:1044000006464FEA164646EA42564FEAD22242EAAA
:1044100041524FEAD121A3F57053A3F1010300F0FB
:104420002FF820F0004000F0004700F1020CBCF52E
:10443000006F01EB0050114640EA070000D210BDAA
:10444000BAF1000F0AD01CB503B44FF004004FF0CE
:1044500004014FF000000FBCBDE810404FF0000118
:10446000BBF1010FB9BF04484FF0FF3103480021F1
:1044700040EA070010BD00BFFFFFEF7F0000F07FA4
:104480009C46002B30D477002BD04FEA37071CB561
:1044900003B44FF010004FF01001BAF1000F06D036
:1044A000BCF1000FDCBF40F0080040F008014FF005
:1044B00000000FBCBDE810400BF1010BBBF1010F78
:1044C00008BF5FEA170722BF12F1010211F10101D3
:1044D0004FF0004143F1000300F0004043EA0000C8
:1044E0007047F9D35708D0E746EA06464FEA164622
:1044F00013F1400F1FDD13F1200FDFBF16430A46F3
:10450000002120335B42BED0C3F1200746EA0646B5
:104510004FEA164602FA07F746EA070622FA03F2BE
:10452000C3F1200701FA07F742EA070221FA03F173
:104530004FF00003A7E746EA020646EA06464FEABE
:10454000164646EA0106BCBF46EA0646360C4FF060
:1045500000034FF000024FF0000194E72DE9804C7A
:1045600070B49A46934691E8380007C831EA400C87
:1045700048BF34EA430C03D5FFF7A3FDFFF780FFE4
:10458000F0BCBDE8008C2DE9804C70B49A4693468F
:1045900091E8380007C831EA400C48BF34EA430CC0
:1045A00003D5FFF78EFDFFF729FFF0BCBDE8008CB7
:1045B0002DE9804C70B49A46934691E8380007C8BC
:1045C00010F0804F08BF13F0804F03D100F01AF8AD
:1045D000FFF756FFF0BCBDE8008C2DE9804C70B4AD
:1045E0009A46934691E8380007C810F0804F08BFFC
:1045F00013F0804F03D100F005F8FFF7FFFEF0BC89
:10460000BDE8008C20F07F4723F07F4C80EA030058
:1046100000F0004007EB0C03A3F57C53A3F1FE036D
:1046200092F0000F00F0B38095F0000F00F077805B
:104630002DE901494FEA114021EA00484FEA1446AA
:1046400024EA064700FB06FC08FB06F607FB08F811
:1046500018EB06484CEB164C00FB07F718EB074825
:104660004CEB17404FEA124B22EA0B4E4FEA15462D
:1046700025EA06470BFB06FC0EFB06F607FB0EFEC3
:104680001EEB064E4CEB164C0BFB07F71EEB074ED2
:104690004CEB174B18EB0B0840F1000018EB0E0B1E
:1046A00058EB000840F100008F1A4FF000014FF066
:1046B00000063CBFC943661B14BFB5EB040C0021C8
:1046C0003CBFC943F61B4FEA174427EA04454FEAAB
:1046D0001C472CEA074C04FB076205FB07F70CFBA1
:1046E00005F616EB074642EB174204FB0CFC16EBF3
:1046F0000C4642EB1C421BEB060658EB0202414102
:104700004EEA8E0E46EA9E0601D5BDE80189B6192D
:10471000524141EB0101A3F10103BDE801894FEAD8
:10472000144524EA05464FEA114721EA074C05FBE8
:1047300007F406FB07F70CFB06F111EB074144EB0E
:10474000174405FB0CFC11EB0C4144EB1C444FEAF5
:10475000124722EA074C05FB07F206FB07F70CFBA2
:1047600006F616EB074642EB174205FB0CFC16EB70
:104770000C4642EB1C456A1854F1000148BF7047D3
:10478000B619524141EB0101A3F10103704795F0C5
:10479000000F37D04FEA114221EA02464FEA144790
:1047A00024EA074C02FB07F106FB07F70CFB06F4B3
:1047B00014EB074441EB174102FB0CFC14EB0C44D7
:1047C00041EB1C414FEA154725EA074C02FB07F570
:1047D00006FB07F70CFB06F616EB074645EB1745FD
:1047E00002FB0CFC16EB0C4645EB1C42121951F176
:1047F000000148BF7047B619524141EB0101A3F1D6
:10480000010370474FEA144524EA05464FEA114771
:1048100021EA074C05FB07F106FB07F70CFB06F244
:1048200012EB074241EB174105FB0CFC12EB0C426B
:1048300051EB1C414FF0000648BF7047921841EB06
:104840000101A3F10103704740F2013200204FF053
:10485000E04101F03BB80000024A0020110701F0DE
:1048600035B8000001FDFFFF10B50446D1E9000195
:1048700000F002F8206010BDF8B504460D466A4607
:1048800000F06AF800987E30009000281EDC0022BC
:1048900013462046294600F099FA17D0002140F629
:1048A00008004FF0000006462046294600F0F0F8C8
:1048B000044640F6080006EA00014FF0000034F01C
:1048C000004004BF0220FCF7ECF829E00098FF2824
:1048D00028DB002108464FF0000000F440060022CB
:1048E00013462046294600F0E7FB8CBF0025012532
:1048F0000220FCF7D6F84FF0FF4446B1002D0CBF64
:104900004FF400004FF48000B04218BF084C04215F
:1049100008464FF00000002D04BF84F00040F8BDB1
:104920002046F8BD20462946BDE8F84000F0B0B862
:10493000FFFF7F7F10B504460A46D4E900031946FD
:1049400000F036F8C4E9000110BD30380A2801D261
:10495000012070470020704710B5144600222260E5
:10496000114A21F000439342A8BF10BD53EA000250
:1049700008BF10BDB3F5801FA8BF226807DA362232
:1049800000F0A4FF6FF0350221F000432260DFF851
:104990001CC06FF31E510CEB23531A4441F0FF511E
:1049A00041F00051226010BD0000F07F02FCFFFFCB
:1049B0002DE9F04106460C4640F2FF75174635EAF0
:1049C00014502BD000221346304600F0FFF925D0BA
:1049D0003A463046214600F079FF06460C4635EA55
:1049E000145010D000221346304600F0EFF915D1D4
:1049F0000220FCF756F8FFF72FFF0A46214662F324
:104A00001E01BDE8F0810220FCF74BF8FFF71CFF08
:104A10000A46214662F31E01BDE8F0813046214678
:104A2000BDE8F08108B50A460021009101466846BC
:104A3000FBF7E1FB009808BD10B500290AD0087803
:104A4000002807D005487844FBF752FF002801D022
:104A5000002010BD0248784410BD00000E10000078
:104A60000610000010B500290AD00878002807D0E9
:104A700005487844FBF73CFF002801D0002010BD1A
:104A80000248784410BD0000FE0F0000F60F000041
:104A900021F0004201F00043A2F16052B2F5801F04
:104AA00028BFD2F17F6C0BD95FEA001C43EAC20237
:104AB00042EB507018BF704728BF20F001007047CC
:104AC000B2F5801FBCBF184670474FEA410C1CF579
:104AD000001F02D2084600F04ABE70B500F098FAF6
:104AE00000000089FFF7F6BF4FF00040A0F58000FE
:104AF0007047000002494FF0000000F0B5BE00BF53
:104B00000000F87F491058BFC1F140415B1058BF09
:104B1000C3F140438B42EFF3008070472DE9C04161
:104B200030B4DFF8A0C23CEA111418BF3CEA1314F9
:104B300000F0EC801CEA111481EA030544EAD57404
:104B400018BF1CEA131500F0C780A4EB050404F19C
:104B50007F7404F500344FF0004545EAC12145EA71
:104B6000C32341EA505143EA52534FEAC0204FEA6F
:104B7000C222994208BF904200F09C804FEA136520
:104B80000FF24016765D4FEA134506FB05F7C7F1B5
:104B9000807706FB07F74FEAD737A7FB0368764213
:104BA000A7FB06CEC8F5803838BFA8F1010807FB7F
:104BB00008E6A6FB028C4FF0000EE6FB03CEDCF10C
:104BC000000CCEF1004E38BFAEF1010EA6FB0C5822
:104BD0004FF00007E6FB0E87A1FB08C6A0FB07CE3F
:104BE00016EB0E064FF0000545F10005E1FB0765E9
:104BF00015F1E04E7EBFA4F580345FEA46066D41B4
:104C000016F1800745F100054FEA172747EA0567C7
:104C10004FEA15254FEA0666A6F1DE46B6F1805F3B
:104C20001FD9384605EBC47124F0010C01EB0C11BF
:104C3000BCF1FE6F02D8F0BCBDE8008124425CBF2D
:104C400001F5801E9EEAC47F02D4F0BCBDE800815D
:104C5000244238D4A1F1C041F0BCBDE8004100F0CD
:104C600025BA4FEAD02040EA41504FEAD1214FEA1D
:104C7000D22242EA43524FEAD323A7FB028607FB24
:104C8000036605FB02661EEA0E0F58BFA6EB005630
:104C9000B6EB00564FEA520E4EEAC37E18EB0E0EEC
:104CA00056EB530EBDD518EB02085E417F1C55F143
:104CB0000005B6E74FF480154FF000074FF00006EF
:104CC0004FF00008ADE701F1C04101F000414FF0A5
:104CD0000000F0BCBDE800810CEA131511EA0C1FBE
:104CE00000D00CE013EA0C1F00F025804FF000000C
:104CF00081EA030101F00041F0BCBDE80081F0BC95
:104D0000BDE8004181EA030100F0D0B9F0BCBDE884
:104D1000004170B500F07CF9097EFC3E00F007B858
:104D20004FF0000081EA030101F00041704781EA81
:104D3000030100F0BBB9F0BCBDE8004122494FF0CF
:104D400000007047FFFDFBF9F7F5F4F2F0EEEDEB34
:104D5000E9E8E6E4E3E1E0DEDDDBDAD8D7D5D4D379
:104D6000D1D0CFCDCCCBCAC8C7C6C5C4C2C1C0BFC5
:104D7000BEBDBCBBBAB9B8B7B6B5B4B3B2B1B0AFCB
:104D8000AEADACABAAA9A8A8A7A6A5A4A3A3A2A1AF
:104D9000A09F9F9E9D9C9C9B9A999998979796956A
:104DA00095949393929191908F8F8E8E8D8C8C8B06
:104DB0008B8A89898888878786858584848383828E
:104DC000828181800000FF070000F87F51EA030C18
:104DD00017D41CF5801F58BFBCF5801F00F106805A
:104DE000994218BF704708BF9042704707D711F526
:104DF000801F58BF13F5801F19D49942704789420C
:104E000070471CF5801F08D5BCF5801FF7D58B4275
:104E100018BF704708BF824270474FF4001C1CEB5C
:104E2000410F38BF1CEB430F01D28B42704770B566
:104E300000F0EEF8922449004FF000514FF08053FB
:104E4000FFF760BE51EA030C17D41CF5801F58BF52
:104E5000BCF5801F00F10680994218BF704708BF5B
:104E60009042704707D711F5801F58BF13F5801F78
:104E700019D499427047894270471CF5801F08D5A4
:104E8000BCF5801FF7D58B4218BF704708BF824220
:104E900070474FF4001C1CEB410F38BF1CEB430F55
:104EA00001D28B42704770B500F0B2F892244900ED
:104EB0004FF000514FF08053FFF724BE70B5DFF87C
:104EC00048C11CEA111E1EBF1CEA13159EEA0C0FF6
:104ED00095EA0C0F00F06F8081EA03044EEAD47E5D
:104EE000AE4421EA4C1123EA4C1341F4801143F4FF
:104EF0008013AEF17F7EA1FB024CA0FB0365361947
:104F000055EB0C05A1FB034C4CF10003A0FB021C6C
:104F100016EB0C06654153F10003094218BF46F039
:104F2000010613F4007F0BD14FEA03314FEA05303D
:104F300041EA155140EA165034036FF003020AE0CB
:104F40004FEAC3214FEAC52041EA555140EA565085
:104F5000F4026FF0020202EB2E4201EB025585EAE9
:104F6000CE710AD05FEA440C18BF24F0004450F11F
:104F7000000041F1000120EAD47040F2FE7C62455D
:104F800000D270BDA84214BF4FF080444FF040449F
:104F9000002E08BF0024BEF1806FA8BFA1F1C04160
:104FA000BDE8704080F2828001F1C04101F0004113
:104FB0004FF0000070470CEA13159EEA0C0F18BF63
:104FC00095EA0C0F06D081EA030E4FF000000EF0B8
:104FD000004170BD00F01CF88900013E00F007B8E8
:104FE00000F009B84FEA430C5FEA5C5C08D081EA44
:104FF000030100F05BB84FEA410C5FEA5C5CF6D15C
:1050000002494FF0000070470000FF070000F87FE2
:105010000EF1020E2EF0030E5EF8046B364205D43C
:10502000012A43EB030515F5001F12D8012841EBB7
:10503000010C1CF5001F0CD80ED14FEAD17C0CEBF3
:105040004C0C0CF1020C15F5001F08BF4CEBD37C87
:1050500004E04FF0080C01E04FEAD37C0CEB4C0568
:1050600026FA05F606F00706B6F1040C06D20EEB9A
:10507000860CBDE870404CF0010C6047DFE80CF096
:10508000090B02024FF00041A1F500214FF0000092
:1050900070BD19461046012851EB010418BFD4F524
:1050A000001484BF002001F0004170BD0808A0F585
:1050B00000114FEA3101704753EA010C17D41CF577
:1050C000801F58BFBCF5801F00F106808B4218BFBF
:1050D000704708BF8242704707D713F5801F58BF3B
:1050E00011F5801F19D48B4270479B4270471CF505
:1050F000801F08D5BCF5801FF7D5994218BF7047AF
:1051000008BF904270474FF4001C1CEB430F38BFA0
:105110001CEB410F01D2994270470FB40CBC03BC89
:10512000FFF7C1BE43004FEAD30C4FEA3C0C4340AB
:105130001FBF40070CF1605113F0FE4F70471CF089
:10514000006F03D10CF00041002070470CF00043C9
:1051500043EA507040EACC0010B500F0C2FA00BF3C
:10516000000000924FEA0001FFF7A0BF4FF000419E
:10517000A1F500214FF000007047000090EA010FF8
:1051800048BF81F0004100F1FE82421A3CBF801A04
:1051900089184FEAD052A2EBD1534FF07F4C1CEA52
:1051A000410F18BF9CEA026F00F03B804FF0004CAB
:1051B0004CEA00204CEA012121FA03FC10EB0C0C14
:1051C0001ED202F1FF325FEA1C2040EBC25038BF12
:1051D00070471CF07F0F4FEA400C18BFBCF17F4FA7
:1051E00038BF7047C3F12003994008BF20F0010089
:1051F000BCF17F4F38BF7047A0F1C04000F0B7BA94
:105200004FEA3C00000A40EBC25028BF1CF0FF0FE1
:105210004FEA400CE6D018BFBCF17F4F38BF704753
:10522000EAE79CEA026F05D010EA5C0F08BF00F0C5
:105230000040704710B500F054FA00BF64FBBE3E5A
:1052400010B500F0F5F80CBF0120002010BD10B51E
:1052500000F0EEF814BF0120002010BD10B500F0E2
:1052600057F98CBF0120002010BD10B500F050F997
:105270002CBF0120002010BD10B500F07DF994BFB7
:105280000120002010BD10B500F076F934BF0120D8
:10529000002010BD401058BFC0F14040491058BF19
:1052A000C1F140418142EFF3008070474FF47F0C21
:1052B0001CEAD0121EBF1CEAD11392EA0C0F93EA2B
:1052C0000C0F00F0858090EA010F48BF42F4807215
:1052D00040F4000C41F400002CF07F4120F07F40AE
:1052E00000B5A2EB030281420FF2081CACEB504E5A
:1052F0009EF800E0C0F100004FEA4E0E00FB0EFCED
:1053000038BF49004FEA2C1C0CFB0EF34FEACE1EAF
:105310000EEB635E4FEA112C0EFB0CFC4FEAC12131
:105320004FEA1C5300FB031102F5FA024FEA112C5D
:105330000EFB0CFC4FEA01314FEADC4C00FB0C1178
:1053400042EB2242C14228BF09184CEB03335DF8FF
:1053500004EB10EB410143EBC250B2F57C0F38BFB8
:10536000704729D512F0F00F1CBF00F1C04000F0CB
:1053700000407047008182838485868788898B8C72
:105380008D8E8F919293959697999A9C9D9FA0A2AE
:10539000A3A5A7A8AAACAEB0B2B3B5B7B9BCBEC0FE
:1053A000C2C5C7C9CCCED1D4D7D9DCDFE2E6E9EC9F
:1053B000F0F3F7FAFE0000004FEA400C0CF1807C9D
:1053C000BCF17E4F28BF7047B0F1C04000F0CFB9AC
:1053D0000CEAD11390EA010F48BF42F48072624593
:1053E00038BF634507D213F47F0F16D080EA01005F
:1053F00000F00040704710B500F073F9097EFC3EE4
:1054000000F005B880EA010000F00040704780EA33
:10541000010000F0004000F0AAB912F47F0F04BFB1
:105420000248704780EA010000F0A1B90000C07F87
:1054300050EA010C00F113801CF5000F58BFBCF5B9
:10544000000F01D48842704707D710F5000F58BFEE
:1054500011F5000F15D488427047894270471CF53A
:10546000000F04D5BCF5000FF7D5814270474FF00F
:10547000807C1CEB400F38BF1CEB410F01D28142F6
:10548000704710B500F02DF9922449004FF00050FC
:105490004FF08051FFF7FEBE41000B0ED3F19E028C
:1054A00008D950F400034FEA032323FA02F048BF5F
:1054B0004042704710B500F014F900BF49922480B3
:1054C000002070476FF0004282EA20007047000021
:1054D000C10DD1F19E0206DB4FEA002343F00043E9
:1054E00023FA02F07047004207D54FEA4001B1F1BC
:1054F000FE4F02D24FF00000704710B500F0F1F8F7
:1055000049922480002070476FEA20007047000015
:1055100050EA010C00F113801CF5000F58BFBCF5D8
:10552000000F01D48842704707D710F5000F58BF0D
:1055300011F5000F15D488427047894270471CF559
:10554000000F04D5BCF5000FF7D5814270474FF02E
:10555000807C1CEB400F38BF1CEB410F01D2814215
:10556000704710B500F0BDF8922449004FF080500C
:105570004FF00051FFF78EBE50EA010C00F113808E
:105580001CF5000F58BFBCF5000F01D488427047CE
:1055900007D710F5000F58BF11F5000F15D488423A
:1055A0007047894270471CF5000F04D5BCF5000F09
:1055B000F7D5814270474FF0807C1CEB400F38BF1D
:1055C0001CEB410F01D28142704710B500F089F801
:1055D000922449004FF000504FF08051FFF75ABE1F
:1055E0004FF47F0C1CEAD0121EBF1CEAD11392EAC2
:1055F0000C0F93EA0C0F00F0478090EA010F48BFB0
:1056000042F480724FF0004C4CEA00204CEA012139
:1056100002EB0302A0FB0113A2F50002002918BF50
:1056200043F001035B0028BF4FEA330342EB224201
:105630005FEA132C4CEBC2502EBFBCEB436FB2F5AC
:105640007C0F70474FEA036CBCF1004F08BF20F09D
:105650000100B2F57C0F38BF70470BD582F0FF0216
:1056600012F5803FC8BF704700F1C040D8BF00F0BE
:105670000040704700F5000C5FEA4C0C48BF7047D3
:10568000B0F1C04000F073B80CEAD11390EA010FFA
:1056900048BF42F48072624538BF634504D280EA55
:1056A000010000F00040704710B500F01AF800BF8C
:1056B0008900013E00F007B800F009B85FEA410C2C
:1056C0005FEA1C6C08D080EA010000F050B85FEA85
:1056D000400C5FEA1C6CF6D14FF00040A0F5800052
:1056E00070470EF1020E2EF0030E5EF8044B2442BA
:1056F00004D44FEA4102B2F17F4F11D84FEA400380
:10570000B3F17F4F0CD80ED14FEAD07C0CEB4C0C90
:105710000CF1020CB2F17F4F08BF4CEBD17C04E0DE
:105720004FF0080C01E04FEAD17C0CEB4C0324FA5B
:1057300003F404F00704B4F1040C06D20EEB840C5D
:10574000BDE810404CF0010C6047DFE80CF00708A2
:1057500002024FF00040A0F5800010BD0846420054
:1057600018BFD2F1807288BF00F0004010BDFF2149
:1057700041EAD050C005704790EA010F48BF81F060
:1057800000413FF502AD421A04D882F00042A0EB7E
:10579000020011444FEAD052A2EBD1534FF07F4C9C
:1057A0001CEA410F18BF9CEA026F4AD04FF0004C30
:1057B0004CEA00204CEA012121FA03FCB0EB0C0C6E
:1057C0000FD412F0FE0F36D05FEA4C001DD5001248
:1057D00040EBC25038BF70471CF03F0F18BF7047F6
:1057E0000BE05FEA1C20A2F1010240EBC25038BF7F
:1057F00070471CF07F0F18BF7047C3F1200399401A
:1058000014BF401E20F0010070474FEA12238008A9
:1058100008BF7047B0FA80FCA2EB0C02CCF1280C58
:1058200060FA0CF093EA122F04BF00EBC2507047ED
:105830004FEAC3707047130A5FEADC1008BF704775
:10584000F6E79CEA026F04D010EA5C0F08BF002064
:10585000704710B5FFF745FF40DFF63E81F000408E
:1058600070474FF0000070470CF00F03092B08BF82
:10587000082000F05F800A2B0BD0082B18BF704760
:1058800008BF1CF0400F0AD04FF000004FF000019D
:1058900070471CF0400F18BF4FF0004070471CF0DD
:1058A000100F08D000F07F4220F0704342EAD3018D
:1058B0004FEA4370704700F0604021F07F4242EAB7
:1058C000000201F07F4040EA727070474FF0FF0C19
:1058D0004CF4E06C1CEA11531CBF9CEA030C944589
:1058E000C2BFDA4201EB02517047002B0DD0BCF170
:1058F000000F0FD001F00041002AA4BF41F0E041A9
:1059000041F07F614FF00000704701F000414FF01F
:105910000000704750EA01334FF09B0C18BF4CF069
:10592000806C7FF4E7A87047FAF78CBEFBF7C0B82D
:10593000FBF74EBA1CF4801F11D01CF4E02F03D0EB
:105940006FEACC31490070474FF04050EFF30082CE
:1059500022F0704242EA000282F3008870474FF062
:105960000000704702400000000000A0000000009E
:1059700005400000000000C8000000000C400000CE
:105980000000409C00000000194000000020BCBE48
:105990000000000034400000BFC91B8E000000045E
:1059A000B5400000504BCFD06607E2CF01000000A9
:1059B0006C4100003E8251AADFEEA73401000000D6
:1059C000D9420000DCB5A0E23A301F97FFFFFFFF8D
:1059D000B4450000FD25A0C8E9A3C14FFFFFFFFFAC
:1059E000FF3F00000000008000000000FF3F0000BB
:1059F0000000008000000000000000000000000027
:105A00000102030406070809000000000102030464
:105A1000010202030405060708090A0B0C0D0E0F0C
:105A200010102C00805B0008000000201000000017
:105A300028010008905B0008100000200809000001
:105A400044010008000000000000F07FFFFFFFFF9E
:105A5000FFFFEF7F1C00000043000000F8FFFFFF86
:105A60000C0000000E0000000F0000002E000000DF
:105A70001001000043000000F8FFFFFF004040401D
:105A80004040404040404141414141404040404011
:105A900040404040404040404040404040050202BD
:105AA000020202020202020202020202022020207C
:105AB00020202020202020020202020202029090D8
:105AC00090909090101010101010101010101010D6
:105AD000101010101010101002020202020288882A
